{
  "_format": "hh-sol-artifact-1",
  "contractName": "Lottery",
  "sourceName": "contracts/Lottery.sol",
  "abi": [
    {
      "inputs": [],
      "stateMutability": "nonpayable",
      "type": "constructor"
    },
    {
      "inputs": [],
      "name": "enter",
      "outputs": [],
      "stateMutability": "payable",
      "type": "function"
    },
    {
      "inputs": [],
      "name": "getPlayers",
      "outputs": [
        {
          "internalType": "address[]",
          "name": "",
          "type": "address[]"
        }
      ],
      "stateMutability": "view",
      "type": "function"
    },
    {
      "inputs": [],
      "name": "manager",
      "outputs": [
        {
          "internalType": "address",
          "name": "",
          "type": "address"
        }
      ],
      "stateMutability": "view",
      "type": "function"
    },
    {
      "inputs": [],
      "name": "pickWinner",
      "outputs": [],
      "stateMutability": "nonpayable",
      "type": "function"
    },
    {
      "inputs": [
        {
          "internalType": "uint256",
          "name": "",
          "type": "uint256"
        }
      ],
      "name": "players",
      "outputs": [
        {
          "internalType": "address",
          "name": "",
          "type": "address"
        }
      ],
      "stateMutability": "view",
      "type": "function"
    }
  ],
  "bytecode": "0x608060405234801561001057600080fd5b50336000806101000a81548173ffffffffffffffffffffffffffffffffffffffff021916908373ffffffffffffffffffffffffffffffffffffffff160217905550610aea806100606000396000f3fe60806040526004361061004a5760003560e01c8063481c6a751461004f5780635d495aea1461007a5780638b5b9ccc14610091578063e97dcb62146100bc578063f71d96cb146100c6575b600080fd5b34801561005b57600080fd5b50610064610103565b60405161007191906105a0565b60405180910390f35b34801561008657600080fd5b5061008f610127565b005b34801561009d57600080fd5b506100a6610307565b6040516100b39190610679565b60405180910390f35b6100c4610395565b005b3480156100d257600080fd5b506100ed60048036038101906100e891906106d6565b610443565b6040516100fa91906105a0565b60405180910390f35b60008054906101000a900473ffffffffffffffffffffffffffffffffffffffff1681565b60008054906101000a900473ffffffffffffffffffffffffffffffffffffffff1673ffffffffffffffffffffffffffffffffffffffff163373ffffffffffffffffffffffffffffffffffffffff16146101b5576040517f08c379a00000000000000000000000000000000000000000000000000000000081526004016101ac90610786565b60405180910390fd5b6000600180549050116101fd576040517f08c379a00000000000000000000000000000000000000000000000000000000081526004016101f4906107f2565b60405180910390fd5b600060018054905061020d610482565b6102179190610841565b905060006001828154811061022f5761022e610872565b5b9060005260206000200160009054906101000a900473ffffffffffffffffffffffffffffffffffffffff1690508073ffffffffffffffffffffffffffffffffffffffff166108fc479081150290604051600060405180830381858888f193505050501580156102a2573d6000803e3d6000fd5b50600067ffffffffffffffff8111156102be576102bd6108a1565b5b6040519080825280602002602001820160405280156102ec5781602001602082028036833780820191505090505b50600190805190602001906103029291906104b8565b505050565b6060600180548060200260200160405190810160405280929190818152602001828054801561038b57602002820191906000526020600020905b8160009054906101000a900473ffffffffffffffffffffffffffffffffffffffff1673ffffffffffffffffffffffffffffffffffffffff1681526020019060010190808311610341575b5050505050905090565b662386f26fc1000034116103de576040517f08c379a00000000000000000000000000000000000000000000000000000000081526004016103d59061091c565b60405180910390fd5b6001339080600181540180825580915050600190039060005260206000200160009091909190916101000a81548173ffffffffffffffffffffffffffffffffffffffff021916908373ffffffffffffffffffffffffffffffffffffffff160217905550565b6001818154811061045357600080fd5b906000526020600020016000915054906101000a900473ffffffffffffffffffffffffffffffffffffffff1681565b60004442600160405160200161049a93929190610a7b565b6040516020818303038152906040528051906020012060001c905090565b828054828255906000526020600020908101928215610531579160200282015b828111156105305782518260006101000a81548173ffffffffffffffffffffffffffffffffffffffff021916908373ffffffffffffffffffffffffffffffffffffffff160217905550916020019190600101906104d8565b5b50905061053e9190610542565b5090565b5b8082111561055b576000816000905550600101610543565b5090565b600073ffffffffffffffffffffffffffffffffffffffff82169050919050565b600061058a8261055f565b9050919050565b61059a8161057f565b82525050565b60006020820190506105b56000830184610591565b92915050565b600081519050919050565b600082825260208201905092915050565b6000819050602082019050919050565b6105f08161057f565b82525050565b600061060283836105e7565b60208301905092915050565b6000602082019050919050565b6000610626826105bb565b61063081856105c6565b935061063b836105d7565b8060005b8381101561066c57815161065388826105f6565b975061065e8361060e565b92505060018101905061063f565b5085935050505092915050565b60006020820190508181036000830152610693818461061b565b905092915050565b600080fd5b6000819050919050565b6106b3816106a0565b81146106be57600080fd5b50565b6000813590506106d0816106aa565b92915050565b6000602082840312156106ec576106eb61069b565b5b60006106fa848285016106c1565b91505092915050565b600082825260208201905092915050565b7f4f6e6c7920746865206d616e616765722063616e2063616c6c2074686973206660008201527f756e6374696f6e00000000000000000000000000000000000000000000000000602082015250565b6000610770602783610703565b915061077b82610714565b604082019050919050565b6000602082019050818103600083015261079f81610763565b9050919050565b7f4e6f20706c617965727320696e20746865206c6f747465727900000000000000600082015250565b60006107dc601983610703565b91506107e7826107a6565b602082019050919050565b6000602082019050818103600083015261080b816107cf565b9050919050565b7f4e487b7100000000000000000000000000000000000000000000000000000000600052601260045260246000fd5b600061084c826106a0565b9150610857836106a0565b92508261086757610866610812565b5b828206905092915050565b7f4e487b7100000000000000000000000000000000000000000000000000000000600052603260045260246000fd5b7f4e487b7100000000000000000000000000000000000000000000000000000000600052604160045260246000fd5b7f4d696e696d756d20656e7472792066656520697320302e303120657468657200600082015250565b6000610906601f83610703565b9150610911826108d0565b602082019050919050565b60006020820190508181036000830152610935816108f9565b9050919050565b6000819050919050565b610957610952826106a0565b61093c565b82525050565b600081549050919050565b600081905092915050565b60008190508160005260206000209050919050565b6109918161057f565b82525050565b60006109a38383610988565b60208301905092915050565b60008160001c9050919050565b600073ffffffffffffffffffffffffffffffffffffffff82169050919050565b60006109ef6109ea836109af565b6109bc565b9050919050565b6000610a0282546109dc565b9050919050565b6000600182019050919050565b6000610a218261095d565b610a2b8185610968565b9350610a3683610973565b8060005b83811015610a6e57610a4b826109f6565b610a558882610997565b9750610a6083610a09565b925050600181019050610a3a565b5085935050505092915050565b6000610a878286610946565b602082019150610a978285610946565b602082019150610aa78284610a16565b915081905094935050505056fea26469706673582212203ff2f5cd37922910a8392ce00d683dfe698d77e8b3af9555714fa6f1aa9826b264736f6c63430008180033",
  "linkReferences": {},
  "deployedLinkReferences": {}
}